:10217D0075A15575A1AAE5B954F84406F5B9E4F56C
:02218D00A1228D
:1020D300EF4E601505A105A105A105A105A105A167
:0A20E30005A1EF1F70EA1E80E7223E
:10215300AD07AC06ED4C600E7FE87E031220D3ED95
:072163001D70F11C80EE224B
:101D5B00C29FD29EC29DC2CDC2CC4387809001A7A9
:101D6B001211CF00000104E47B0AFAF9F89001A7E5
:101D7B00E0FCA3E0FDA3E0FEA3E0FF1210ED900159
:101D8B00ABEBF09001A7E0FCA3E0FDA3E0FEA3E02A
:101D9B00FFE47B0AFAF9F81210ED9001A71211C3B8
:101DAB009001ABE0C39405401F9001A7E0FCA3E0BA
:101DBB00FDA3E0FEA3E02401FFE43EFEE43DFDE4D1
:101DCB003CFC9001A71211C3E589540F4420F589FF
:101DDB0043C9A09001A7A3A3A3E0F404F58DD28E71
:041DEB00D299D29C1B
:011DEF0022D1
:101609007374617274202E2E2E0A001201100100CB
:10161900000008888004000501010200010C03098B
:10162900040408040C040411042003480061006E3A
:101639000064006C0065002000420059005300421C
:10164900002E006E00650074001A034B62C4671B0C
:1016590054200042005900530042002E006E0065DC
:101669000074002603530069006D00500061006496
:101679000020004E0061006E006F0020004B0065E5
:101689000079007000610064002203530069006D55
:101699000050006100640020004E0061006E006F80
:1016A900002000F78F604F2E95D8762203530069EA
:1016B900006D0050006100640020004E0061006E62
:1016C900006F002000F78F604F7593E4762803536D
:1016D9000069006D0050006100640020004E006147
:1016E900006E006F002000DF30CB30AD30FC30DC05
:1016F90030FC30C93005010906A101050719E029A7
:10170900E715002501750195088102950175088184
:1017190001950375010508190129039102950575BC
:101729000191019506750826FF0005071900299101
:101739008100C005010902A1010901A100050919DA
:101749000129031500250175019503810275059588
:1017590001810105010930093109381581257F7594
:101769000895038106C0C005010900A101150025DE
:10177900FF19012908950875088102090215002534
:10178900FF750895409106C009025B00030100A09E
:10179900960904000001030101000921100100015B
:1017A900223E000705810308000109040200010324
:1017B90001020009211001000122340007058303F9
:1017C90004000109040100020300000009211001BD
:1017D90000012221000705820308000A0705020308
:0317E900080002F3
:101EFE00035E0000000361000000036400000003A5
:101F0E0067000000036B000000023A0000023C0074
:101F1E0000023E0000024200000245000041017F27
:101F2E0000C13EC140C139C13A045600000000084C
:101F3E002A0000000000000000C13FC13DC13CC1AD
:0D1F4E003B024E000002510000025C00004A
:0A218F0075A15575A1AA43B11022F5
:101F5C00C2EAE4F5E275D18053D1FB53E2BF75EFD1
:101F6C000075EE0AE5EA54EF4440F5EA75D21275B5
:101F7C00E50075E45075E70075E6D443EB4C53EB84
:101F8C00EE75D41275D61275ED0075EC0053EAF3AC
:101F9C0075DC02E4F5E343E22943D10175D8FF7502
:051FAC00E107D2EA226A
:1020ED00780A7C007D017B007A00792A7E007F08CA
:0A20FD00120FC575D30853D2FC2260
:1021070078D47C007D017B007A0079567E007F04BD
:0A211700120FC575D70453D6FC2241
:1021210078907C007D017B017A01795F7E007F08D8
:0A213100120FC575D50853D4FC2227
:0300430002004672
:0D004600C0E0C0F0C083C082C0D075D008FB
:1000530075100020D90302057FE5D9543F700302D0
:10006300057424FE603924D2700302012D2410B4D8
:100073000400400302057D90008875F003A4C58346
:1000830025F0C5837302051302010C0200940201DB
:100093001975D500E5D454FC4402F5D4020124209B
:1000A300DE0302057D43D40885DB10900050E06039
:1000B3004DA3E0FF900180F0900052E0FE9001819B
:1000C300F0900053E0FD900182F0900054E0FC902A
:1000D3000183F0EF6EFFED6FFFEC6FFF900055E0D3
:1000E3006F701B900050E025E025E0FF7B017A0153
:1000F30079809001AB7404F0121E8E120AA3D23FD2
:1001030075D50853D4F702057D75D300E5D254FCA9
:100113004402F5D2800B75D700E5D654FC4402F5B2
:10012300D690015E7401F002057D85DB10E5106455
:100133000860030204F0900006E0900167F090006D
:1001430007E07009900167E0D3947F400690016750
:10015300747FF0751000900001E090016CF0900046
:1001630000E05460603F90016CE01424FD501824BB
:10017300FB600924FE601004700A800B9001A174D7
:1001830001F080037510FF900167E0D395104003E1
:10019300E510F0900167E0FFC3940840057F080273
:1001A300038802038890016CE0B40B00400302044F
:1001B300EE9001BBF82828730204D40203E502047D
:1001C300EE02043E0204EE0203B50201DC0204EE79
:1001D3000203C00203DA0204F3900003E024FE608A
:1001E3002514603624E1700302031B2421600302FB
:1001F300036B90019D74FFF0A37416F0A37414F0C5
:1002030075101202036E90019D74FFF0A37417F032
:10021300A37491F075105B02036E900002E070030B
:1002230002030824FE605604600302036B9000047B
:10023300E0FFB40407A3E0B404028019EFB4040997
:10024300900005E0B40802800C900004E0B40419A7
:10025300A3E0B40C1490019D74FFF0A37416F0A3F3
:100263007452F075101A02036E90019D74FFF0A38F
:100273007416F0A37432F075102002036E9000041C
:10028300E0FFB40414A3E0B4080F90019D74FFF0E1
:10029300A37416F0A374928033EFB4041690000590
:1002A300E0B40C0F90019D74FFF0A37416F0A374D7
:1002B300B48019900004E0B40419A3E0B4041490CA
:1002C300019D74FFF0A37416F0A374B4F0751022AB
:1002D30002036E900004E0B41118A3E0B404139079
:1002E300019D74FFF0A37416F0A374D6F075102863
:1002F300807990019D74FFF0A37416F0A3746CF0E1
:10030300751026806690019D74FFF0A37416F0A308
:100313007426F075100C8053900004E0FF70139066
:10032300019D74FFF0A37416F0A374FEF075103EE4
:100333008039EFB4011390019D74FFF0A37417F09B
:10034300A37470F07510218022EFB4021990019DFF
:1003530074FFF0A37417F0A3743CF075103490018C
:10036300A17401F0800580007510FF900167E0D350
:1003730095104003E510F0900167E0FFC394084037
:10038300047F0880008F107E0078007C007D019040
:10039300019DE0FBA3E0FAA3E0F9120FC59001670A
:1003A300E0C39510F090019EE48510F012104C020A
:1003B30004F3900002E0900167F00204F390015807
:1003C300E0900000F0900167E0C394015003020441
:1003D300F37510010204F3900002E0900158F0025B
:1003E30004F3900000E0541FFF640270489000047F
:1003F300E014602F1460311460332482601124FEF2
:10040300601704702DE5D454BC4402F5D48026E56E
:10041300D254BC4402F5D2801CE5D654BC4402F548
:10042300D6801253D273800D53D473800853D6737E
:1004330080037510FFEF70260204F3900000E05470
:100443001FFD7020900003E0FE900002E0FBEB64D0
:10045300014E700D9017989330E5030204F30204E4
:10046300F00204F0ED64027066900003E0FE900079
:1004730002E0FDED4E7056900005E0FE900004E0B2
:10048300FDEDFFEE7045EF24FE6018146033248207
:10049300601B24FE6021047032E5D454BF4403F58D
:1004A300D4804DE5D4547F440CF5D48043E5D25435
:1004B300BF4403F5D28039E5D654BF4403F5D68053
:1004C3002FE5D6547F440CF5D680258020801E80EE
:1004D3001C900000E4F0A3F0900167E0FFC39402D6
:1004E300400575100280098F10800580007510FF8C
:1004F300E510B4FF0B90016C74FFF075DCCF807ACC
:10050300E5106004F5DD800375DD0075DCC0806AED
:1005130090016CE024FB604314704E900167E0FF90
:10052300C3940840047F0880008F107E0078007C0D
:10053300007D0190019DE0FBA3E0FAA3E0F9120F17
:10054300C5900167E0C39510F090019EE48510F01B
:1005530012104C8510DD63DC40801FE5E35480FFFF
:10056300900167E04FF5E3800375DD0075DC0280E1
:100573000985DB1075DD0075DC00C2D930D815752F
:10058300DC0275D21075D41275D61275E300C2DA87
:10059300C2D9C2D830DA09C2DAE5DA30E20580031B
:0B05A30075D8FF303F05C23F12197CE5
:0B05AE00D0D0D082D083D0F0D0E0325B
:101E7C00A3F0A3F07B017A0179809001AB7404F09C
:021E8C007F28AD
:0B1E8E009001A8EBF0A3EAF0A3E9F03C
:101E990075A15575A1AA43B104E4F5A17585C0EFF3
:101EA90025E0FFE4F5129001ABE0FEE512C39E5078
:101EB90035E51225E02FF5849001A8E0FBA3E0FAAF
:101EC900A3E0F9851282758300120FEBF58EE58682
:101ED90030E60375869AE5866440D394004003AFE3
:101EE9001222051280C075A15575A1AA53B1FBE450
:041EF900F5A1AF128E
:011EFD0022C2
:081FB1007B007A0079487D04F1
:0B1FB9009001A7EBF0A3EAF0A3E9F011
:101FC4007585C0EF25E0FFE4F512E512C39D5024AA
:101FD400E51225E02FF58475868E9001A7E0FBA31A
:101FE400E0FAA3E0F9851282758300E58E121018D9
:061FF400051280D6AF12B9
:011FFA0022C4
:10213B00E4F55B745F255BF582E43401F583E4F031
:08214B00055BE55BB408EC2222
:101FFB00D2AE903FFCE493FDA3E493FFED9001A7D9
:10200B00CFF0A3EFF0903FFEE493FDA3E493FEED3E
:10201B00FFC2AEE4FCFD78101211B0C8ECC8C9EDDC
:10202B00C9CAEECACBEFCB9001A7E0FEA3E0FFEB52
:09203B004FFFEA4EFEE9FDE8FC4E
:012044002279
:10197C00900051E07003021AA312213B900051E039
:10198C0024FE603A147003021A4724F87003021AFA
:10199C0090240A6003021AA3900052E0B41C02E4E3
:1019AC00F0900052E025E025E0FF7B017A01795FA1
:1019BC007D04121FB9900052E09001638079900071
:1019CC0052E0146018046003021AA390015F7414AF
:1019DC00F0A314F0A37407F0A37410805A90019133
:1019EC00E0FCA3E0FDA3E0FEA3E0FF781812119D3C
:1019FC0090015FEFF0900191E0FCA3E0FDA3E0FE0D
:101A0C00A3E0FF781012119D900160EFF09001910E
:101A1C00E0FCA3E0FDA3E0FEA3E0FF780812119D1B
:101A2C00900161EFF0900191E0FCA3E0FDA3E0FEDA
:101A3C00A3E0FF900162EFF0022121900052E0241C
:101A4C00FE60182403602424FE7036900053E0F5E9
:101A5C0036A3E0F534A3E0F56A8026900053E0F558
:101A6C0037A3E0F535A3E0F5298016900053E0FF8D
:101A7C00F536A3E0FEF534A3E0F56A8F378E35F525
:101A8C0029D23D2290017FE0A3F0A374AAF0E412C6
:081A9C001E7CC2AF12218F2253
:10204500303E03D23922D23EE4F52AF52CF52DF5A2
:102055002EF52FF530E53B453A6007E55E422A85CA
:102065005F2CE53D453C6007E561422A85622DE52B
:102075003F453E6007E564422A85652E1220EDC284
:0A2085003E303905C2391220452211
:10000300303B36304003D23A22D240755608E53BA6
:10001300453A6004E5604256E53D453C6004E563CE
:100023004256E53F453E6004E5664256122107C24B
:0A00330040303A05C23A12000322E1
:06003D0012204502000341
:1017EC00AF4C7E007C007D0312103AEF7802CEC322
:1017FC0013CE13D8F990016DF0E540FB7A007C0014
:10180C007D03FF7E0012103AEF7802CEC313CE1385
:10181C00D8F990016EF0AF387E007C007D03121079
:10182C003AEF7802CEC313CE13D8F990016FF0E5DE
:10183C004C25E0FFE433FEEF7802CEC313CE13D871
:10184C00F9900170F0EB25E0FFEA33FEEF7802CE61
:10185C00C313CE13D8F9900171F0E538FD7C002547
:10186C00E0FFEC33FEEF7802CEC313CE13D8F99021
:10187C000172F07E00E54C7802CEC313CE13D8F97A
:10188C00900173F07E00E5407802CEC313CE13D8DE
:10189C00F9900174F0EDCEECCE7802CEC313CE13DA
:1018AC00D8F9900175F0E54DFB7A007C007D03FFC3
:1018BC007E0012103AEF7802CEC313CE13D8F990F3
:1018CC000176F0AF447E007C007D0312103AEF7875
:1018DC0002CEC313CE13D8F9900177F0AF397E0046
:1018EC007C007D0312103AEF7802CEC313CE13D8CE
:1018FC00F9900178F0EB25E0FFEA33FEEF7802CEA9
:10190C00C313CE13D8F9900179F0E544FD7C002582
:10191C00E0FFEC33FEEF7802CEC313CE13D8F99070
:10192C00017AF0E539FB7A0025E0FFEA33FEEF7827
:10193C0002CEC313CE13D8F990017BF07E00E54D97
:10194C007802CEC313CE13D8F990017CF0EDCEEC17
:10195C00CE7802CEC313CE13D8F990017DF0EBCE26
:10196C00EACE7802CEC313CE13D8F990017EF022C2
:1005B900E53B453A6011E53B153B7002153AE53BD1
:1005C900453A700312003DE53D453C6011E53D1596
:1005D9003D7002153CE53D453C700312003DE53F89
:1005E900453E6011E53F153F7002153EE53F453E2A
:1005F900700312003D90017FE064017003020AA2BA
:10060900E547700302070224FE7003020A631470AF
:1006190003020A4424FE70030209CC8000054FE559
:100629004F7002054E7004E54E640A60030206F934
:10063900F54EF54FE55A14601C14602414602D140E
:10064900603214603B2405703D0540E540F4703686
:10065900755A018031154CE54C702B755A0280266C
:100669000538E538F4701F755A03801AD540177597
:100679005A048012054CE54CB4FF0B755A058006E7
:10068900D53803E4F55AE54114601C14602414605C
:100699002D14603214603B2405703D0544E544F493
:1006A90070367541018031154DE54D702B7541024C
:1006B90080260539E539F4701F754103801AD54440
:1006C900177541048012054DE54DB4FF0B754105C1
:1006D9008006D53903E4F541D23DE547B407051253
:1006E90017EC800C854C3685403485386A02087FC2
:1006F900E54764067003020A85E53B453A601FE554
:100709005064106007755010D23D8006203D0302E9
:100719000866854C3685403485386A020866E55096
:100729007003020866E53B453A6003020866055214
:10073900E55270020551E550C3949F4003E4F5501A
:10074900E5527004E551640A6003020866F551F543
:10075900520550E55020E0030208665350F074102A
:100769002550F550C4540F24FEB408004003020874
:100779006490078875F003A4C58325F0C5837302C7
:1007890007A00207C20207C70207F90207FE02080B
:100799003602084602085D90016DE0254CFFE433FE
:1007A900C313EF13F536A3E02540FFE433C313EF7A
:1007B90013F534A3E02538806C90016D80729001A7
:1007C90070E0FF90016DE02FFFE433C313EF13F5E1
:1007D90036900171E0FF90016EE02FFFE433C313FF
:1007E900EF13F534900172E0FF90016FE02F80352F
:1007F900900170803B900173E0FF900170E02FFF42
:10080900E433C313EF13F536900174E0FF900171DF
:10081900E02FFFE433C313EF13F534900175E0FFC4
:10082900900172E02FFFE433C313EF80229001732C
:10083900E0F536A3E0F534A3E0F56A801E90017374
:10084900E0C313F536A3E0C313F534A3E0FFC313E4
:10085900F56A8007E4F536F534F56AD23DE53D459C
:100869003C601FE55564106007755510D23D800640
:10087900203D03020A85854D37854435853929028E
:100889000A85E5557003020A85E53D453C6003028A
:100899000A85055DE55D7002055CE555C3949F40D9
:1008A90003E4F555E55D7004E55C640A6003020A3A
:1008B90085F55CF55D0555E55520E003020A85538C
:1008C90055F074102555F555C4540F24FEB408008D
:1008D90040030209C79008EC75F003A4C58325F00D
:1008E900C5837302090402092602092B02095D0264
:1008F900096202099A0209AA0209C0900176E02553
:100909004DFFE433C313EF13F537A3E02544FFE4A8
:1009190033C313EF13F535A3E02539806C900176C5
:100929008072900179E0FF900176E02FFFE433C3F4
:1009390013EF13F53790017AE0FF900177E02FFF6D
:10094900E433C313EF13F53590017BE0FF90017891
:10095900E02F8035900179803B90017CE0FF900188
:1009690079E02FFFE433C313EF13F53790017DE0EE
:10097900FF90017AE02FFFE433C313EF13F53590AD
:10098900017EE0FF90017BE02FFFE433C313EF808A
:100999002190017CE0F537A3E0F535A3E0F5298046
:1009A9001D90017CE0C313F537A3E0C313F535A30C
:1009B900E0C313F5298007E4F537F535F529D23D6C
:1009C900020A85054FE54F7002054E7004E54E6435
:1009D9000A7002D23DE53B453A6014E55A7010753C
:1009E9005A01D23D854C3685403485386A8014E5F4
:1009F9005A6014E53B453A700EF55AD23DF536F585
:100A090034F56AF54EF54FE53D453C6014E5417016
:100A190010754101D23D854D378544358539298089
:100A290014E5416057E53D453C7051F541D23DF52E
:100A390037F535F529F54EF54F8041E55A6004E55E
:100A4900417039755A01754101E4F536F534F56A95
:100A5900F537F535F529D23D8022E55A6004E5419F
:100A6900701A755A01754101854C368540348538AF
:100A79006A854D37854435853929D23D303D1AC2BD
:100A89003DAB6AAD34AF361220B6AB29AD35AF37C1
:0A0A99001220B6121B9E12219922B2
:101C8C00209742E53B453A702B90000AE0455EF008
:101C9C0090000CE55FF075D30853D2FC303B0D90EF
:101CAC0000D4E04560F075D70453D6FC85533A85D3
:101CBC00543B8011D3E53B9533E53A95325006857C
:101CCC00323A85333B209542E53D453C702B9000E4
:101CDC000AE04561F090000DE562F075D30853D22F
:101CEC00FC303B0D9000D4E04563F075D70453D61F
:101CFC00FC85533C85543D8011D3E53D9533E53C43
:101D0C009532500685323C85333D209641E53F4562
:101D1C003E702A90000AE04564F090000EE565F0F4
:101D2C0075D30853D2FC303B0D9000D4E04566F0DF
:101D3C0075D70453D6FC85533E85543F22D3E53FDB
:0F1D4C009533E53E9532500685323E85333F2272
:10216A0020970685533A85543B20950685533C852E
:03217A00543D22AF
:100AA3007B007A00795E7D037F04121FB97B007A95
:100AB3000079617F08121FB97B007A0079647F0C8B
:100AC300121FB97B007A0079677F10121FB97B0070
:100AD3007A00796B7F14121FB9E5607010E56370BB
:100AE3000CE5667008E5697004E56D6004D23B802F
:100AF30002C23B7F18121FB185484C854940854A85
:100B0300387B007A0079487F1C121FB985484D85D0
:100B13004944854A397B007A0079487D017F201258
:100B23001FB9854847E54764066009E547640760E0
:100B330003020CD3755100854C52E4F55CF55DAFAF
:100B430040FEC3EF9552EE9551500A8E518F527568
:100B53005C00755D01AF387E00C3EF9552EE955191
:100B6300500A8E518F52755C00755D02E55C60031F
:100B7300020BF5E55D14602E14605224027073E4D9
:100B8300F54CE540C39538500E7538FFE5407002CB
:100B93000540755A03805B7540FFE538B4FF0215C5
:100BA30038755A02804CE4F540E538C3954C500E35
:100BB300754CFFE53870020538755A058034753871
:100BC300FFE54CB4FF02154C755A048025E4F53853
:100BD300E54CC39540500E7540FFE54C7002054C43
:100BE300755A01800D754CFFE540B4FF021540E4D2
:100BF300F55A755100854D52E4F55CF55DAF44FE41
:100C0300C3EF9552EE9551500A8E518F52755C0089
:100C1300755D01AF397E00C3EF9552EE9551500AD1
:100C23008E518F52755C00755D02E55C6003020CAA
:100C3300B3E55D14602E14605224027073E4F54D25
:100C4300E544C39539500E7539FFE54470020544F8
:100C5300754103805B7544FFE539B4FF02153975AF
:100C63004102804CE4F544E539C3954D500E754D72
:100C7300FFE5397002053975410580347539FFE5A3
:100C83004DB4FF02154D7541048025E4F539E54D5A
:100C9300C39544500E7544FFE54D7002054D7541F3
:100CA30001800D754DFFE544B4FF021544E4F541A1
:100CB300854C3685403485386A854D37854435857E
:100CC3003929E4F551F552F55CF55D1217EC801600
:100CD300E5476003B4010A1217ECE4F550F55580BB
:100CE30005E4F55AF541E4F536F534F56AF537F5DB
:100CF30035F529D23DFB7A0079487D047F24121F04
:100D0300B9AF49E4FCFDFEFBFA7901F8121062CD9C
:100D1300EFCDCCEECCE54AFEE42DFFEE3CFE7C00AD
:100D2300EF254BF554EC3EF553C3E5549410E553CE
:100D330094005006755300755410E554AE53780271
:100D4300CEC313CE13D8F9F5338E32C39410E532E4
:100D5300940050067532007533107F28121FB1902E
:100D6300017FE548F09001A0E549F0B4FF02E4F00B
:100D73007B007A0079487D047F70121FB99001913E
:100D8300A3A3E0FEA3E4FFE4FDFC78081211B0EC9A
:100D9300C0E0EDC0E0EEC0E0EFC0E0900191A3A39E
:100DA300A3E0FFE4FEFDFC78181211B0D0E0FBD005
:100DB300E0FAD0E0F9D0E0F8EF2BFFEE3AFEED39A0
:100DC300FDEC38FCECC0E0EDC0E0EEC0E0EFC0E0CD
:100DD300900191A3E0FDA3A3E4FFFEE4FC780812D5
:100DE300119DD0E0FBD0E0FAD0E0F9D0E0F8EB2F92
:100DF300FFEA3EFEE93DFDE83CFCECC0E0EDC0E06F
:100E0300EEC0E0EFC0E0900191E0FCA3A3A3E4FFF8
:100E1300FEFDEC781812119DD0E0FBD0E0FAD0E093
:100E2300F9D0E0F8EB2FFFEA3EFEE93DFDE83CFC9C
:100E33009001681211C3900168E0FCA3E0FDA3E0F8
:100E4300FEA3E0FF12117F9001681211C3AF49E4C2
:100E5300FCFDFEFBFA7901F8121062ECC0E0EDC074
:100E6300E0EEC0E0EFC0E0AF48E4FCFDFEFBFAF9C2
:100E73007801121062D0E0FBD0E0FAD0E0F9D0E0C4
:100E8300F8EF2BFFEE3AFEED39FDEC38FCECC0E059
:100E9300C9EDC9CAEECACBEFCBAF4A7E007C017D58
:100EA30000121206D0E0F8EF2BFBEE3AFAED39F917
:100EB300EC38F8E4FCFDFEEB254BFFEE3AFEED3992
:100EC300FDEC38FC90015A1211C390015AE0FCA3C7
:100ED300E0FDA3E0FEA3E0FF900168E0F8A3E0F9E2
:100EE300A3E0FAA3E0FBC312118C7003C23C22D22D
:020EF3003C229F
:101AA40012217D7F0A7E0012215390018EE4F0A35F
:101AB4007430F0A3E4F01221997F017E00122153C7
:101AC400121F5CD2AF43E904E4F5D3F5D5F5D71280
:101AD4001FFB9001911211C3120AA39001A0E060B0
:101AE4002BE4FBFD7FFF1220B6E4FBFD7FFF1220F9
:101AF400B6121B9E90017FE0A3F0E4A3F0121E7CBB
:101B040090018EA3E0FAA3E0F9121200121D5B7B90
:101B1400FF7A16790912130F122199E490015EF0ED
:101B24009001A1F043C9C0C2C9C2CDC2CCC2C8FB96
:101B3400FDFF1220B6E4FBFDFF1220B6121B9E121D
:101B440021997F017E0012215312216A1205B97F67
:101B5400027E001220D39001A1E06039E490000AD3
:101B6400F09000D47408F0E490000BF09000D5F0ED
:101B740090000CF09000D6F090000DF09000D7F09B
:101B840090000EF0A3F0A3F0A3F0121C8C1205B980
:0A1B9400303CF780FB303CB180FBD1
:06219900751720C294221C
:1020B600AE05AD170517A805A606AE170517A8069F
:0D20C600A607AF03AE170517A806A6072250
:101B9E00E4FF751720D2940000A817E6FE33929446
:101BAE00000000000000C2940000000000000000D1
:101BBE0000D29400000000EEA2E692940000000015
:101BCE000000C294000000000000000000D294004B
:101BDE0000000000A2E59294000000000000C294F4
:101BEE00000000000000000000D294000000000081
:101BFE00A2E49294000000000000C29400000000D5
:101C0E000000000000D2940000000000A2E39294B5
:101C1E00000000000000C294000000000000000060
:101C2E0000D2940000000000A2E292940000000096
:101C3E000000C294000000000000000000D29400DA
:101C4E0000000000A2E19294000000000000C29487
:101C5E00000000000000000000D294000000000010
:101C6E0000139294000000000000C2940005170FAC
:0D1C7E00EF64066003021BA3751720C294DB
:011C8B002236
:03000000021DF0EE
:0C1DF000787FE4F6D8FD75816D021E3787
:100EF500E709F608DFFA8046E709F208DFFA803EDF
:100F050088828C83E709F0A3DFFA8032E309F608CB
:100F1500DFFA8078E309F208DFFA807088828C8333
:100F2500E309F0A3DFFA806489828A83E0A3F608E7
:100F3500DFFA805889828A83E0A3F208DFFA804CC1
:100F450080D280FA80C680D4806980F28033801098
:100F550080A680EA809A80A880DA80E280CA803301
:100F650089828A83ECFAE493A3C8C582C8CCC58379
:100F7500CCF0A3C8C582C8CCC583CCDFE9DEE78049
:100F85000D89828A83E493A3F608DFF9ECFAA9F0C8
:100F9500EDFB2289828A83ECFAE0A3C8C582C8CC1E
:100FA500C583CCF0A3C8C582C8CCC583CCDFEADE37
:100FB500E880DB89828A83E493A3F208DFF980CC99
:100FC50088F0EF60010E4E60C388F0ED2402B40492
:100FD5000050B9F582EB2402B4040050AF23234539
:060FE5008223900F45730A
:100FEB00BB010CE58229F582E5833AF583E02250BB
:100FFB0006E92582F8E622BBFE06E92582F8E22205
:0D100B00E58229F582E5833AF583E493221E
:10101800F8BB010DE58229F582E5833AF583E8F00E
:10102800225006E92582C8F622BBFE05E92582C8BA
:02103800F222A2
:10103A00EF8DF0A4A8F0CF8CF0A428CE8DF0A42ECA
:02104A00FE2284
:10104C00C5F0F8A3E028F0C5F0F8E582158270022F
:06105C001583E038F022CC
:10106200E88FF0A4CC8BF0A42CFCE98EF0A42CFC2D
:101072008AF0EDA42CFCEA8EF0A4CDA8F08BF0A4AB
:101082002DCC3825F0FDE98FF0A42CCD35F0FCEB0A
:101092008EF0A4FEA9F0EB8FF0A4CFC5F02ECD39CF
:0F10A200FEE43CFCEAA42DCE35F0FDE43CFC223C
:1010B10075F008758200EF2FFFEE33FECD33CDCCF6
:1010C10033CCC58233C5829BED9AEC99E582984079
:1010D1000CF582EE9BFEED9AFDEC99FC0FD5F0D656
:1010E100E4CEFBE4CDFAE4CCF9A88222B800C1B980
:1010F1000059BA002DEC8BF084CFCECDFCE5F0CBBE
:10110100F97818EF2FFFEE33FEED33FDEC33FCEBF6
:1011110033FB10D703994004EB99FB0FD8E5E4F9B1
:10112100FA227818EF2FFFEE33FEED33FDEC33FC9E
:10113100C933C910D7059BE99A4007EC9BFCE99A92
:10114100F90FD8E0E4C9FAE4CCFB2275F010EF2FD7
:10115100FFEE33FEED33FDCC33CCC833C810D707D7
:101161009BEC9AE899400AED9BFDEC9AFCE899F812
:0E1171000FD5F0DAE4CDFBE4CCFAE4C8F922A5
:0D117F00CFF4CFCEF4CECDF4CDCCF4CC2205
:10118C00EB9FF5F0EA9E42F0E99D42F0E89C45F0B9
:01119C002230
:10119D00E8600FECC313FCED13FDEE13FEEF13FF30
:0311AD00D8F12254
:1011B000E8600FEFC333FFEE33FEED33FDEC33FC9D
:0311C000D8F12241
:0C11C300ECF0A3EDF0A3EEF0A3EFF0229F
:1011CF00A8828583F0D083D0821211E61211E61225
:1011DF0011E61211E6E473E493A3C583C5F0C5834A
:1011EF00C8C582C8F0A3C583C5F0C583C8C582C86A
:0111FF0022CD
:061200008A838982E47379
:10120600EC8EF0A4CCC5F0CCCDF8EFA4CEC5F02D75
:10121600FDE43CFCE8A42EC8C5F03DFDE43CFCEF33
:0D122600A4FFE5F028FEE43DFDE43CFC22C1
:1012A400E51224AAF582E43401F583E005122290C4
:1012B40001A73037039001AAE475F00112125E020F
:1012C40012332030E97F2ED2308018EF540F24904F
:1012D400D43440D4FF30340BEF24BFB41A0050038D
:1012E4002461FFE513600215130516E51670020567
:1012F4001530370E9001A7E475F00112125EEF026B
:10130400124C02208F7403D2378003E4C237F512E3
:101314009001A7121275E4F513F515F516E513609F
:10132400077F201212E780F57514FFC231C230C264
:1013340032C233C235C236C2381212B3FF700D3016
:1013440037057F001212F8AF16AE1522B4255FC21E
:10135400D5C2341212B3FF24D0B40A00501A75F067
:101364000A781330D50508B6FF0106C6A426F62070
:10137400D5047002D23380D924CFB41A00EF5004BC
:10138400C2E5D2340214F9D23180C6D23080C0D240
:101394003280BCD2D580BAD23580B47F201212E715
:1013A4002032077401B5130040F11212A4FF121287
:1013B400E7021321D238D23680951212A4FB1212FE
:1013C400A4FA1212A4F94A4B700679CA7A157BFF63
:1013D40020322EE513602A7E008E82758300120F60
:1013E400EB60060EEE651470F0C2D5EBC0E0EAC007
:1013F400E0E9C0E0EE121540D0E0F9D0E0FAD0E028
:10140400FB121233FF60AAEBC0E0EAC0E0E9C0E0DF
:101414001212E7D0E02401F9D0E03400FAD0E0FB66
:10142400E5140460DCD514D980877BFF7A15793CF8
:10143400D232809C791080027908C236C238800882
:10144400D2D5790A8004790AC2D5E514047002F56C
:1014540014E4FAFDFEFF1212A4FC7B0820311312DF
:1014640012A4FD7B1030300A1212A4FE1212A4FF43
:101474007B20EC3382D592D55013C3E43030069FE1
:10148400FFE49EFEE42031039DFDE49CFCE4CBF8E4
:10149400C231EC700CCFCECDCCE824F8F870F380D8
:1014A40017C3EF33FFEE33FEED33FDEC33FCEB33C8
:1014B400FB994002FB0FD8E9EB303105F8D0E0C4CA
:1014C40048B231C0E00AEC4D4E4F78207B0070C228
:1014D400EAB5140040BCC0E0121542D0F0D0E020C0
:1014E4003104C4C0E0C4B231C0F01212D0D0F0D57F
:1014F400F0EB02132112127E13BE53143858138FCB
:101504004C138B42143C4F14444414444913A443D5
:08151400144A55142E46142E52
:10151C0045142E4715EA5013932D13972E13BA2BFF
:10152C00139B2313B82015D32A135348000013B26E
:10153C003F3F3F00790AA2D5203314303509B9104A
:10154C00020404B9080104A2D5203602500104207B
:10155C0032689232B513005034C0E07F203033191A
:10156C007F30A23272367235500F121599C232C2C8
:10157C0036C235C2387F30800F303503E9C0E012F7
:10158C0012E7303503D0E0F9D0E0B513CC30351785
:10159C007F30B9100C1212E77F583034077F7880F7
:1015AC0003B908031212E73032057F2D0212E77FD0
:1015BC00202038F87F2B2036F322923280CF286EF1
:1015CC00756C6C2900D2311212A43031F8C231780A
:1015DC001330D50108F60213532D504349581212FB
:1015EC00A42403B405004001E49015E5931212D82D
:0D15FC00743A1212D8D23375130402143859
:101DFC00021AA4E493A3F8E493A34003F68001F23F
:101E0C0008DFF48029E493A3F85407240CC8C333E7
:101E1C00C4540F4420C8834004F456800146F6DFB6
:101E2C00E4800B0102040810204080901EFEE47E2A
:101E3C00019360BCA3FF543F30E509541FFEE493AB
:101E4C00A360010ECF54C025E060A840B8E493A372
:101E5C00FAE493A3F8E493A3C8C582C8CAC583CA9D
:101E6C00F0A3C8C582C8CAC583CADFE9DEE780BE55
:011F5B000085
:10123300BB010689828A83E0225002E722BBFE02B9
:09124300E32289828A83E49322EC
:10124C00BB010689828A83F0225002F722BBFE0181
:02125C00F3227B
:10125E00F8E0FBA3A3E0F925F0F0E5821582700219
:07126E001583E0FA38F022BD
:09127500EBF0A3EAF0A3E9F0227A
:10127E00D083D082F8E4937012740193700DA3A3FF
:10128E0093F8740193F5828883E473740293686013
:06129E00EFA3A3A380DF13
:10208F00EFB40A07740D12209A740A309811A899A8
:10209F00B8130CC2983098FDA899C298B811F630B1
:0720AF0099FDC299F5992289
:00000001FF
