:10252B0075A15575A1AAE5B954F84406F5B9E4F5BA
:02253B00A122DB
:1024E600EF4E601505A105A105A105A105A105A150
:0A24F60005A1EF1F70EA1E80E72227
:10250000AD07AC06ED4C600E7FE87E031224E6EDCD
:072510001D70F11C80EE229A
:1020D700C29FD29EC29DC2CDC2CC438780900225AB
:1020E7001213E600000104E47B0AFAF9F8900225CE
:1020F700E0FCA3E0FDA3E0FEA3E0FF1213049002BF
:1021070029EBF0900225E0FCA3E0FDA3E0FEA3E0AD
:10211700FFE47B0AFAF9F81213049002251213DA86
:10212700900229E0C3940574809480401F90022593
:10213700E0FCA3E0FDA3E0FEA3E02401FFE43EFEF4
:10214700E43DFDE43CFC9002251213DAE589540FC7
:102157004420F58943C9A0900225A3A3A3E0F40472
:08216700F58DD28ED299D29CB5
:01216F00224D
:1019CB007374617274202E2E2E0A00120110010006
:1019DB00000008888004000501010203010C0309C3
:1019EB00040408040C040411042003480061006E75
:1019FB000064006C00650020004200590053004257
:101A0B00002E006E00650074001A034B62C4671B46
:101A1B0054200042005900530042002E006E006516
:101A2B000074002603530069006D005000610064D0
:101A3B000020004E0061006E006F0020004B00651F
:101A4B000079007000610064002203530069006D8F
:101A5B000050006100640020004E0061006E006FBA
:101A6B00002000F78F604F2E95D876220353006924
:101A7B00006D0050006100640020004E0061006E9C
:101A8B00006F002000F78F604F7593E476280353A7
:101A9B000069006D0050006100640020004E006181
:101AAB00006E006F002000DF30CB30AD30FC30DC3F
:101ABB0030FC30C93005010906A101050719E029E1
:101ACB00E7150025017501950881029501750881BF
:101ADB0001950375010508190129039102950575F7
:101AEB000191019506750826FF000507190029913C
:101AFB008100C005010902A1010901A10005091915
:101B0B0001290315002501750195038102750595C2
:101B1B0001810105010930093109381581257F75CE
:101B2B000895038106C0C005010900A10115002518
:101B3B00FF1901290895087508810209021500256E
:081B4B00FF750895409106C0EA
:101EF70002470A0002510A00035B000000035E006C
:101F070000004302160000004302190000004402CB
:101F17001C0000000043020E0000004302110000F5
:101F270000023A0000023C0000023E0000024200AC
:101F370000024500004101DA0041020200C137C139
:101F470039C130C131C133C1345201EC1203000031
:101F57000000000000000000000000000000605BBF
:101F6700015A09025B00030100A096090400000161
:101F770003010100092110010001223E000705812C
:101F870003080001090402000103010200092110EE
:101F9700010001223400070583030400010904013D
:101FA700000203000000092110010001222100079F
:101FB70005820308000A07050203080002046200FD
:101FC700000000082A0000000000000000C138C11E
:101FD70036C135C1320254000002570000026800C2
:011FE70000F9
:10232D009001FEE0FCA3E0FDA3E0FEA3E0FF12138D
:01233D00B4EB
:10233E00EF540FFFFD7C00C374809480400FD3EDEB
:10234E00940974809480500574302FFF22C3ED944D
:10235E000AEC648094804010D3ED940FEC6480946A
:0B236E0080500574372FFF227FFF22F4
:0A253D0075A15575A1AA43B1102243
:10228200C2EAE4F5E275D18053D1FB7400FE740A10
:102292008EEFF5EEE5EA54EF4440F5EA75D212749A
:1022A20000FE74508EE5F5E47400FE74D48EE7F5FA
:1022B200E643EB4C53EBEE75D41275D6127400FE66
:1022C20074008EEDF5EC53EAF375DC02E4F5E343BA
:0E22D200E22943D10175D8FF75E107D2EA2257
:10247300740AF87400FC7401FD7B007A00792A7EEB
:0D248300007F081211DC75D30853D2FC2233
:1024900074D4F87400FC7401FD7B007A0079627ECC
:0D24A000007F041211DC75D70453D6FC2216
:1024CA007490F87400FC7401FDFB7A0179BA7E00FD
:0C24DA007F081211DC75D50853D4FC22D9
:0300430002068131
:0D068100C0E0C0F0C083C082C0D075D008BA
:10068E0075100020D903020C17E5D9543F700302F0
:10069E000C0F24FE603924D270030207652410B4B7
:1006AE0004004003020C159006C375F003A4C58325
:1006BE0025F0C58373020BA50207490206CF020778
:1006CE005775D500E5D454FC4402F5D4020C152020
:1006DE00DE03020C1543D40885DB10900050E06059
:1006EE004FA3E0FF9001DBF0900052E0FE9001DCA2
:1006FE00F0900053E0FD9001DDF0900054E0FC908E
:10070E0001DEF0EF6EFFED6FFFEC6FFF900055E036
:10071E006F701F900050E025E025E0FF7B017A010D
:10072E0079DB9002297404F012220E120C51800211
:10073E00D23875D50853D4F7020C1575D300E5D20F
:10074E0054FC4402F5D2020C1575D700E5D654FCC4
:10075E004402F5D6020C1585DB10E5106408600323
:10076E00020B81900006E09001C2F0900007E0704D
:10077E000D9001C2E0D3947F748094804006900166
:10078E00C2747FF0751000900001E09001C7F090E8
:10079E000000E0546060459001C7E01424FD50183D
:1007AE0024FB600924FE601004700A800B90021571
:1007BE007401F080037510FF9001C2E0D3951040D4
:1007CE0003E510F09001C2E0FFC39408748094809A
:1007DE0040077E08EEFF020A02020A029001C7E0FD
:1007EE00B40B004003020B7F9007FDF8282873021C
:1007FE000B61020A66020B7F020AC8020B7F020A15
:10080E003202081E020B7F020A3D020A5B020B84B3
:10081E00900003E024FE602114603224E170030294
:10082E000989242160030209DF90020B74FFF0A3F3
:10083E007419F0A374D602097090020B7401F0A320
:10084E007401F0A3745AF075105B0209E290000275
:10085E00E0700302097624FE6066147003020963D9
:10086E00240260030209DF900004E0FF7E006404AE
:10087E007008A3E064047002801EEF64044E700AD8
:10088E00900005E064087002800E900004E064049D
:10089E00701AA3E0640C701490020B74FFF0A37432
:1008AE001AF0A37414F075101A0209E290020B7478
:1008BE00FFF0A37419F0A374F4F07510200209E28E
:1008CE00900004E0FF7E006411701AA3E0640470CF
:1008DE001490020B74FFF0A3741AF0A37498F075C1
:1008EE0010280209E2EF64044E7017900005E064D0
:1008FE0008700F90020B74FFF0A3741AF0A37454D7
:10090E008038900004E064047015A3E0640C700F4E
:10091E0090020B74FFF0A3741AF0A37476801B90F0
:10092E000004E06404701AA3E06404701490020BD7
:10093E0074FFF0A3741AF0A37476F07510220209F6
:10094E00E290020B74FFF0A3741AF0A3742EF075EC
:10095E0010260209E290020B7401F0A37401F0A3B9
:10096E0074ECF0751012806C90020B74FFF0A3748F
:10097E0019F0A374E8F075100C8059900004E0FF94
:10098E007E00701390020B74FFF0A3741AF0A37420
:10099E00C0F075103E803DEF64014E701390020B57
:1009AE0074FFF0A3741BF0A37432F0751021802431
:1009BE00EF64024E701990020B74FFF0A3741AF0DC
:1009CE00A374FEF07510349002157401F08005804A
:1009DE00007510FF9001C2E0D395104003E510F0B2
:1009EE009001C2E0FFC394087480948040067E0894
:1009FE00EEFF80008F107E007400F87400FC74010E
:100A0E00FD90020BE0FBA3E0FAA3E0F91211DC90DB
:100A1E0001C2E0C39510F090020CE48510F01212A2
:100A2E0063020B84900002E09001C2F0020B8490EE
:100A3E000158E0900000F09001C2E0C39401748070
:100A4E0094805003020B84751001020B84900002F7
:100A5E00E0900158F0020B84900000E0541FFF7EDE
:100A6E00006402704B900004E01460321460351480
:100A7E0060382482601224FE6019047065E5D45437
:100A8E00BC4402F5D4020B84E5D254BC4402F5D228
:100A9E00020B84E5D654BC4402F5D6020B8453D225
:100AAE0073020B8453D473020B8453D673020B84DC
:100ABE00EF4E7003020B84020B81900000E0541F76
:100ACE00FD7C007020900003E0FE900002E0FBEB46
:100ADE0064014E700D900161E030E503020B84025B
:100AEE000B81020B81ED64024C7066900003E0FEF8
:100AFE00900002E0FDED4E7056900005E0FE900075
:100B0E0004E0FDEDFFEE7045EF24FE601814603337
:100B1E002482601B24FE6021047032E5D454BF444D
:100B2E0003F5D48051E5D4547F440CF5D48047E5C9
:100B3E00D254BF4403F5D2803DE5D654BF4403F5ED
:100B4E00D68033E5D6547F440CF5D6802980248098
:100B5E00228020900000E4F0A3F09001C2E0FFC3D9
:100B6E00940274809480400575100280098F108065
:100B7E000580007510FFE510F4700C9001C774FF2E
:100B8E00F075DCCF020C15E5106004F5DD80037501
:100B9E00DD0075DCC080709001C7E024FB604C1452
:100BAE0070579001C2E0FFC3940874809480400691
:100BBE007E08EEFF80008F107E007400F87400FC3B
:100BCE007401FD90020BE0FBA3E0FAA3E0F9121111
:100BDE00DC9001C2E0C39510F090020CE48510F099
:100BEE001212638510DD63DC40801CE5E35480FF48
:100BFE009001C2E04FF5E3800375DD0075DC0280E5
:100C0E000685DB1063DC80C2D930D81575DC027521
:100C1E00D21075D41275D61275E300C2DAC2D9C2DB
:100C2E00D830DA09C2DAE5DA30E205800375D8FF8A
:080C3E00303805C238121DD741
:0B0C4600D0D0D082D083D0F0D0E032BC
:1021FC00A3F0A3F07B017A0179DB9002297404F03F
:02220C007F2829
:0B220E00900226EBF0A3EAF0A3E9F039
:1022190075A15575A1AA43B104E4F5A17585C0EF6F
:1022290025E0FFE4F512900229E0FEE512C39E5075
:1022390039E51225E02FF584900226E0FBA3E0FAA8
:10224900A3E0F9851282758300121202F58EE586E4
:1022590030E60375869AE5866440D39400748094C9
:10226900804003AF1222051280BC75A15575A1AA41
:0822790053B1FBE4F5A1AF1223
:01228100223A
:082379007B007A00794A7D0423
:0B238100900225EBF0A3EAF0A3E9F0C6
:10238C007585C0EF25E0FFE4F512E512C39D5024DE
:10239C00E51225E02FF58475868E900225E0FBA3CF
:1023AC00E0FAA3E0F9851282758300E58E12122FF4
:0623BC00051280D6AF12ED
:0123C20022F8
:10245300E4F567C3E567940874809480501174BAF7
:102463002567F582E43401F583E4F0056780E4220F
:1023C300D2AE903FFCE493FDA3E493FFED9002258E
:1023D300CFF0A3EFF0903FFEE493FDA3E493FEED73
:1023E300FFC2AEE4FCFD78101213C7ECF8EDF9EE72
:1023F300FAEFFB900225E0FEA3E0FFEB4FFFEA4E6E
:05240300FEE9FDE8FC0C
:0124080022B1
:101DD700900051E07003021EF6122453900051E068
:101DE70024FE603A147003021E9A24F87003021E40
:101DF700E3240A6003021EF6900052E0641C70019F
:101E0700F0900052E025E025E0FF7B017A0179BAE6
:101E17007D04122381900052E09001BE80719000F2
:101E270052E0146018046003021EF69001BA74149D
:101E3700F0A314F0A3740BF0A3741380529001FE67
:101E4700E0FCA3E0FDA3E0FEA3E0FF78181213B4C3
:101E57009001BAEFF09001FEE0FCA3E0FDA3E0FEE5
:101E6700A3E0FF78101213B49001BBEFF09001FECE
:101E7700E0FCA3E0FDA3E0FEA3E0FF78081213B4A3
:101E87009001BCEFF09001FEA3A3A3E09001BDF089
:101E97000224CA900052E024FE6018240360242420
:101EA700FE7036900053E0F536A3E0F534A3E0F575
:101EB7006A8026900053E0F537A3E0F535A3E0F5F7
:101EC700298016900053E0FFF536A3E0FEF534A312
:101ED700E0F56A8F378E35F529D236229001DAE0A0
:101EE700A3F0A374AAF0E41221FCC2AF12253D228D
:1022E000303703D23022D237E4F52AF52CF52DF51C
:1022F0002EF52FF530E53B453A6007E55B422A8530
:102300005C2CE53D453C6007E55E422A855F2DE596
:102310003F453E600A90021CE0422AA3E0F52E12DF
:0D2320002473C237303005C2301222E02293
:10000300303238303903D23122D239756208E53BB8
:10001300453A6004E55D4262E53D453C6004E560C8
:100023004262E53F453E600690021EE042621224B2
:0C00330090C239303105C23112000322A6
:10251700E55D700AE560700690021EE06003D23246
:0425270022C2322278
:062547001222E002000375
:101C9800AF4E7E007C007D031212517802EFCEC356
:101CA80013CE13D8F99001C8F0E540FB7A007C0008
:101CB8007D03FFEAFE1212517802EFCEC313CE1352
:101CC800D8F99001C9F0AF387E007C007D0312126C
:101CD800517802EFCEC313CE13D8F99001CAF0E4BD
:101CE800C313E54E13A3F0EAC313EB13A3F0E538CF
:101CF800FD7C00ECC313ED13A3F07E007802E54EE3
:101D0800CEC313CE13D8F99001CEF07E007802E549
:101D180040CEC313CE13D8F99001CFF07802CEECA1
:101D2800CEEDCEC313CE13D8F99001D0F0E54FFB1A
:101D38007A007C007D03FFEAFE1212517802EFCE92
:101D4800C313CE13D8F99001D1F0AF447E007C00C4
:101D58007D031212517802EFCEC313CE13D8F99037
:101D680001D2F0AF397E007C007D03121251780257
:101D7800EFCEC313CE13D8F99001D3F0EAC313EB17
:101D880013A3F0E544FD7C00ECC313ED13A3F0E5C9
:101D980039FB7A00EAC313EB13A3F07E007802E55F
:101DA8004FCEC313CE13D8F99001D7F07802CEECFA
:101DB800CEEDCEC313CE13D8F99001D8F07802CE69
:0F1DC800EACEEBCEC313CE13D8F99001D9F02297
:10004600E53B453A6011E53B153B7002153AE53B49
:10005600453A7003122547E53D453C6011E53D15DF
:100066003D7002153CE53D453C7003122547E53FD2
:10007600453E6011E53F153F7002153EE53F453EA2
:1000860070031225479001DAE064017003020680CE
:10009600E54970030201DB24FE7003020554147067
:1000A6000302052824FE70030204A924FD7003023E
:1000B600058280000555E5557002055465487004B3
:1000C600E554654760030201C9F554F555E5661424
:1000D600601C14602414602D14603514603E2405E1
:1000E60070420540E540F4703B7566018036154E5A
:1000F600E54E7030756602802B0538E538F47024BD
:10010600756603801F1540E54070197566048014F6
:10011600054EE54EF4700D75660580081538E53810
:100126007002F566E54114601C14602414602D14F9
:10013600603514603E240570420544E544F4703B86
:100146007541018036154FE54F7030754102802BA1
:100156000539E539F47024754103801F1544E544DB
:1001660070197541048014054FE54FF4700D754103
:100176000580081539E5397002F541D236E549643E
:10018600077005121C98803BE549640970233033DB
:100196000B854E3685403485386A8007E4F536F59A
:1001A60034F56A3034028012E4F537F535F52980E6
:1001B60012854E3685403485386A854F37854435F5
:1001C600853929AF49EF640670030205C2EF640959
:1001D60070030205C2E53B453A601FE556641060B0
:1001E60007755610D2368006203603020345854E23
:1001F6003685403485386A020345E55670030203A6
:1002060045E53B453A60030203450558E55870024B
:100216000557C3E556949F748094804003E4F556D1
:10022600E55865527004E55765516003020345F5CC
:1002360057F5580556E55620E0030203455356F098
:1002460074102556F556C4540F24FEB40800400316
:1002560002034390026775F003A4C58325F0C583A6
:100266007302027F0202A10202A60202D80202DD86
:1002760002031502032502033C9001C8E0254EFF48
:10028600E433C313EF13F536A3E02540FFE433C38D
:1002960013EF13F534A3E02538806C9001C8807203
:1002A6009001CBE0FF9001C8E02FFFE433C313EFCA
:1002B60013F5369001CCE0FF9001C9E02FFFE4333F
:1002C600C313EF13F5349001CDE0FF9001CAE02F80
:1002D60080359001CB803B9001CEE0FF9001CBE0D2
:1002E6002FFFE433C313EF13F5369001CFE0FF90F1
:1002F60001CCE02FFFE433C313EF13F5349001D0A4
:10030600E0FF9001CDE02FFFE433C313EF8022908E
:1003160001CEE0F536A3E0F534A3E0F56A801E9041
:1003260001CEE0C313F536A3E0C313F534A3E0FF13
:10033600C313F56A8007E4F536F534F56AD236E577
:100346003D453C6017E56164106008756110D23662
:100356000205B02036030205C20205B0E56170034E
:100366000205C2E53D453C60030205C20569E56933
:1003760070020568C3E561949F748094804003E42D
:10038600F561E56965527004E5686551600302052B
:10039600C2F568F5690561E56120E0030205C2530F
:1003A60061F074102561F561C4540F24FEB4080091
:1003B60040030204A49003C975F003A4C58325F085
:1003C600C583730203E102040302040802043A022D
:1003D600043F02047702048702049D9001D1E025C0
:1003E6004FFFE433C313EF13F537A3E02544FFE4CF
:1003F60033C313EF13F535A3E02539806C9001D193
:1004060080729001D4E0FF9001D1E02FFFE433C366
:1004160013EF13F5379001D5E0FF9001D2E02FFFDF
:10042600E433C313EF13F5359001D6E0FF9001D303
:10043600E02F80359001D4803B9001D7E0FF9001FA
:10044600D4E02FFFE433C313EF13F5379001D8E060
:10045600FF9001D5E02FFFE433C313EF13F535907A
:1004660001D9E0FF9001D6E02FFFE433C313EF80FC
:10047600219001D7E0F537A3E0F535A3E0F5298013
:100486001D9001D7E0C313F537A3E0C313F535A3D9
:10049600E0C313F5298007E4F537F535F529D2369B
:1004A6000205C20555E555700205547004E554640D
:1004B6000A7002D236E53B453A6014E5667010755F
:1004C6006601D236854E3685403485386A8014E515
:1004D600666014E53B453A700EF566D236F536F59C
:1004E60034F56AF554F555E53D453C6014E5417033
:1004F60010754101D236854F3785443585392980B7
:100506001AE54170030205C2E53D453C600302055C
:10051600C2F541D236F537F535F529F554F55502CC
:1005260005C2E5666007E54160030205C212254D76
:100536007F017E00122500756601754101E4F536DE
:10054600F534F56AF537F535F529D236806EE56668
:100556006004E541706612254D7F017E001225007C
:10056600756601754101854E3685403485386A8544
:100576004F37854435853929D23680400555E555AE
:10058600700205547004E554640A7030D236F5548E
:10059600F55530330B854E3685403485386A8007ED
:1005A600E4F536F534F56A30340B854F3785443536
:1005B6008539298007E4F537F535F5292036030214
:1005C6000680C236E55014603814601E14600A8036
:1005D60000AB6AAD34AF368040E536C313FFE53471
:1005E600C313FDE56AC313FB802FE5361313543F8F
:1005F600FFE5341313543FFDE56A1313543FFB80A4
:1006060018E536131313541FFFE534131313541F41
:10061600FDE56A131313541FFB1224ADE553146052
:100626003814601E14600A8000AB29AD35AF3780E0
:1006360040E537C313FFE535C313FDE529C313FBB7
:10064600802FE5371313543FFFE5351313543FFD51
:10065600E5291313543FFB8018E537131313541F72
:10066600FFE535131313541FFDE529131313541F08
:0B067600FB1224AD121FE912254D22DB
:101B5300209744E53B453A702D90000AE0455BF041
:101B630090000CE55CF075D30853D2FC30320D9035
:101B730000D4E0455DF075D70453D6FC85593A850A
:101B83005A3BB2338011D3E53B9533E53A95325056
:101B93000685323A85333B209544E53D453C702D1F
:101BA30090000AE0455EF090000DE55FF075D30804
:101BB30053D2FC30320D9000D4E04560F075D70469
:101BC30053D6FC85593C855A3DB2348011D3E53D4B
:101BD3009533E53C9532500685323C85333D30964E
:101BE30003021C97E53F453E6003021C8690000AF2
:101BF300E0FF90021CE0FEEF4E90000AF090021D01
:101C0300E090000EF075D30853D2FC3032169000EA
:101C1300D4E0FF90021EE0FEEF4E9000D4F075D7A3
:101C23000453D6FC90021FE0FF60517E00640170F4
:101C33002290020EE0F55BA3E0F55CA3E0F55DA363
:101C4300E0F55EA3E0F55FA3E0F56090021F740288
:101C5300F08026EF64024E7020900216E0F55BA33D
:101C6300E0F55CA3E0F55DA3E0F55EA3E0F55FA31B
:101C7300E0F56090021F7401F012251785593E8527
:101C83005A3F22D3E53F9533E53E953250068532E0
:051C93003E85333F22F5
:1024300020970EE53B453A7002B23385593A855AEA
:102440003B20950EE53D453C7002B23485593C85F4
:032450005A3D22D0
:100C51007B017A0279167D037F041223817B017A5D
:100C61000279197F081223817B007A00795B7F0466
:100C71001223817B007A00795E7F081223817B0138
:100C81007A02791C0D7F0C12238190021FE060090A
:100C9100E490021CF0A3F0A3F07B017A02790E7DAF
:100CA100037F301223817B017A0279117F34122371
:100CB100811225177B007A00794A0D7F1812238152
:100CC100854A4E854B40854C38854D50AF50EF607D
:100CD10009D394047480948040037550047F1C12DE
:100CE1002379854A4F854B44854C39854D53AF5304
:100CF100EF6009D394047480948040037553047B9E
:100D0100007A00794A7D017F20122381854A49AF0B
:100D110049EF6406600DEF64076008EF6409600342
:100D2100020EC0755700854E58E4F568F569AF406D
:100D3100FEC3EF9558EE9557500A8E578F58756838
:100D410000756901AF387E00C3EF9558EE95575095
:100D51000A8E578F58756800756902E5686003024D
:100D61000DE2E56914602E14605224027073E4F5FB
:100D71004EE540C39538500E7538FFE540700205C9
:100D810040756603805B7540FFE538F470021538E5
:100D9100756602804CE4F540E538C3954E500E75FA
:100DA1004EFFE5387002053875660580347538FFE9
:100DB100E54EF47002154E7566048025E4F538E5BC
:100DC1004EC39540500E7540FFE54E7002054E75BD
:100DD1006601800D754EFFE540F470021540E4F5A3
:100DE10066755700854F58E4F568F569AF44FEC351
:100DF100EF9558EE9557500A8E578F5875680075C4
:100E01006901AF397E00C3EF9558EE9557500A8EB0
:100E1100578F58756800756902E5686003020EA076
:100E2100E56914602E14605224027073E4F54FE5F5
:100E310044C39539500E7539FFE544700205447578
:100E41004103805B7544FFE539F470021539754142
:100E510002804CE4F544E539C3954F500E754FFFC0
:100E6100E5397002053975410580347539FFE54F63
:100E7100F47002154F7541048025E4F539E54FC33F
:100E81009544500E7544FFE54F7002054F754101C1
:100E9100800D754FFFE544F470021544E4F541857A
:100EA1004E3685403485386A854F378544358539D6
:100EB10029E4F557F558F568F569121C988018AFC3
:100EC10049EF60046401700A121C98E4F556F5615B
:100ED1008005E4F566F541E4F536F534F56AF53754
:100EE100F535F529D236FB7A00794A7D047F241243
:100EF1002381AF4BE4FCFDFEFBFA7901F812127974
:100F0100EFFDEEFCE54CFEE42DFFEE3CFE7C00EF38
:100F1100254DF55AEC3EF559C3E55A9410E559941F
:100F2100005006755900755A10855932855A337F1C
:100F3100281223799001DAE54AF0900214E54BF08A
:100F4100E0F47001F0900202E54CF060069001615E
:100F51007480F07B007A00794A7D047F2C12238112
:100F6100E54AF551E54BF552E54CF547E54DF548B8
:100F7100E5484547700575470AF548E55245517002
:100F81000575510AF5527B007A00794A7D047F701C
:100F91001223819001FEA3A3E0FEA3E4FFE4FDFC84
:100FA10078081213C7ECC0E0EDC0E0EEC0E0EFC07E
:100FB100E09001FEA3A3A3E0FFE4FEFDFC7818127C
:100FC10013C7D0E0FBD0E0FAD0E0F9D0E0F8EF2B86
:100FD100FFEE3AFEED39FDEC38C0E0EDC0E0EEC0C9
:100FE100E0EFC0E09001FEA3E0FDA3A3E4FFFEE477
:100FF100FC78081213B4D0E0FBD0E0FAD0E0F9D0CD
:10100100E0F8EB2FFFEA3EFEE93DFDE83CC0E0EDF4
:10101100C0E0EEC0E0EFC0E09001FEE0FCA3A3A3BE
:10102100E4FFFEFDEC78181213B4D0E0FBD0E0FA37
:10103100D0E0F9D0E0F8EB2FFFEA3EFEE93DFDE814
:101041003CFC9001C31213DA9001C3E0FCA3E0FD64
:10105100A3E0FEA3E0FF1213969001C31213DAAFCF
:101061004BE4FCFDFEFBFA7901F8121279ECC0E0C9
:10107100EDC0E0EEC0E0EFC0E0AF4AE4FCFDFEFBF6
:10108100FAF97801121279D0E0FBD0E0FAD0E0F958
:10109100D0E0F8EF2BFFEE3AFEED39FDEC38C0E081
:1010A100EDC0E0EEC0E0EFC0E0AF4C7E007C017D22
:1010B1000012141DD0E0FBD0E0FAD0E0F9D0E0F846
:1010C100EF2BFBEE3AFAED39F9EC38F8E4FCFDFED2
:1010D100EB254DFFEE3AFEED39FDEC38FC9001B504
:1010E1001213DA9001B5E0FCA3E0FDA3E0FEA3E05A
:1010F100FF9001C3E0F8A3E0F9A3E0FAA3E0FBC38A
:0B1101001213A37003C23522D2352266
:1018200012252B7F0A7E001225009001E9E4F0A327
:101830007430F0A3E4F012254D7F017E00122500E4
:10184000122282D2AF43E904E4F5D3F5D5F5D712DD
:1018500023C39001FE1213DA781C12232D9001EE9F
:10186000EFF0781812232D9001F0EFF09001FEE0D8
:10187000FCA3E0FDA3E0FEA3E0FF78141213B41272
:10188000233E9001F2EFF09001FEE0FCA3E0FDA307
:10189000E0FEA3E0FF78101213B412233E9001F48F
:1018A000EFF09001FEE0FCA3E0FDA3E0FEA3E0FF6B
:1018B000780C1213B412233E9001F6EFF09001FE63
:1018C000E0FCA3E0FDA3E0FEA3E0FF78081213B460
:1018D00012233E9001F8EFF09001FEE0FCA3E0FD42
:1018E000A3E0FEA3E0FF78041213B412233E90019C
:1018F000FAEFF09001FEA3A3A3E0FF12233E9001B4
:10190000FCEFF0120C51900214E0602BE4FBFD7F21
:10191000FF1224ADE4FBFD7FFF1224AD121FE990FE
:1019200001DAE0A3F0E4A3F01221FC9001E9A3E0C6
:10193000FAA3E0F91214171220D77BFF7A1979CB9A
:1019400012152612254DE49001B9F0900215F043CE
:10195000C9C0C2C9C2CDC2CCC2C8FBFDFF1224ADF2
:10196000E4FBFDFF1224AD121FE912254D7F017E1D
:1019700000122500900202E0700612243012004688
:101980007F027E001224E6900215E06039E49000A8
:101990000AF09000D47408F0E490000BF09000D5A9
:1019A000F090000CF09000D6F090000DF09000D771
:1019B000F090000EF0A3F0A3F0A3F0121B5312005E
:0B19C000463035F780FB3035AB80FB74
:06254D00751720C2942264
:1024AD00AE05AD170517A805A606AE170517A806A4
:0D24BD00A607AF03AE170517A806A6072255
:101FE900E4FF751720D2940000A817E6FE339294F7
:101FF900000000000000C294000000000000000082
:1020090000D29400000000EEA2E6929400000000C5
:102019000000C294000000000000000000D29400FB
:1020290000000000A2E59294000000000000C294A4
:10203900000000000000000000D294000000000031
:10204900A2E49294000000000000C2940000000085
:102059000000000000D2940000000000A2E3929466
:10206900000000000000C294000000000000000011
:1020790000D2940000000000A2E292940000000047
:102089000000C294000000000000000000D294008B
:1020990000000000A2E19294000000000000C29438
:1020A900000000000000000000D2940000000000C1
:1020B90000139294000000000000C2940005170F5D
:0D20C900EF64066003021FEE751720C2943D
:0120D60022E7
:030000000221706A
:0C217000787FE4F6D8FD75816A0221B783
:10110C00E709F608DFFA8046E709F208DFFA803EC5
:10111C0088828C83E709F0A3DFFA8032E309F608B2
:10112C00DFFA8078E309F208DFFA807088828C831A
:10113C00E309F0A3DFFA806489828A83E0A3F608CE
:10114C00DFFA805889828A83E0A3F208DFFA804CA8
:10115C0080D280FA80C680D4806980F2803380107F
:10116C0080A680EA809A80A880DA80E280CA8033E8
:10117C0089828A83ECFAE493A3C8C582C8CCC58360
:10118C00CCF0A3C8C582C8CCC583CCDFE9DEE78030
:10119C000D89828A83E493A3F608DFF9ECFAA9F0AF
:1011AC00EDFB2289828A83ECFAE0A3C8C582C8CC05
:1011BC00C583CCF0A3C8C582C8CCC583CCDFEADE1E
:1011CC00E880DB89828A83E493A3F208DFF980CC80
:1011DC0088F0EF60010E4E60C388F0ED2402B40479
:1011EC000050B9F582EB2402B4040050AF23234520
:0611FC00822390115C73D8
:10120200BB010CE58229F582E5833AF583E02250A1
:1012120006E92582F8E622BBFE06E92582F8E222EB
:0D122200E58229F582E5833AF583E4932205
:10122F00F8BB010DE58229F582E5833AF583E8F0F5
:10123F00225006E92582C8F622BBFE05E92582C8A1
:02124F00F22289
:10125100EF8DF0A4A8F0CF8CF0A428CE8DF0A42EB1
:02126100FE226B
:10126300C5F0F8A3E028F0C5F0F8E5821582700216
:061273001583E038F022B3
:10127900E88FF0A4CC8BF0A42CFCE98EF0A42CFC14
:101289008AF0EDA42CFCEA8EF0A4CDA8F08BF0A492
:101299002DCC3825F0FDE98FF0A42CCD35F0FCEBF1
:1012A9008EF0A4FEA9F0EB8FF0A4CFC5F02ECD39B6
:0F12B900FEE43CFCEAA42DCE35F0FDE43CFC2223
:1012C80075F008758200EF2FFFEE33FECD33CDCCDD
:1012D80033CCC58233C5829BED9AEC99E582984060
:1012E8000CF582EE9BFEED9AFDEC99FC0FD5F0D63D
:1012F800E4CEFBE4CDFAE4CCF9A88222B800C1B967
:101308000059BA002DEC8BF084CFCECDFCE5F0CBA4
:10131800F97818EF2FFFEE33FEED33FDEC33FCEBDD
:1013280033FB10D703994004EB99FB0FD8E5E4F998
:10133800FA227818EF2FFFEE33FEED33FDEC33FC85
:10134800C933C910D7059BE99A4007EC9BFCE99A79
:10135800F90FD8E0E4C9FAE4CCFB2275F010EF2FBE
:10136800FFEE33FEED33FDCC33CCC833C810D707BE
:101378009BEC9AE899400AED9BFDEC9AFCE899F8F9
:0E1388000FD5F0DAE4CDFBE4CCFAE4C8F9228C
:0D139600CFF4CFCEF4CECDF4CDCCF4CC22EC
:1013A300EB9FF5F0EA9E42F0E99D42F0E89C45F0A0
:0113B3002217
:1013B400E8600FECC313FCED13FDEE13FEEF13FF17
:0313C400D8F1223B
:1013C700E8600FEFC333FFEE33FEED33FDEC33FC84
:0313D700D8F12228
:0C13DA00ECF0A3EDF0A3EEF0A3EFF02286
:1013E600A8828583F0D083D0821213FD1213FD12DA
:1013F60013FD1213FDE473E493A3C583C5F0C583FF
:10140600C8C582C8F0A3C583C5F0C583C8C582C850
:0114160022B3
:061417008A838982E47360
:10141D00EC8EF0A4CCC5F0CCCDF8EFA4CEC5F02D5C
:10142D00FDE43CFCE8A42EC8C5F03DFDE43CFCEF1A
:0D143D00A4FFE5F028FEE43DFDE43CFC22A8
:1014BB00E5122428F582E43402F583E0051222902C
:1014CB000225304103900228E475F00112147502D5
:1014DB00144A203AE97F2ED23A8018EF540F249009
:1014EB00D43440D4FF303E0BEF24BFB41A0050036A
:1014FB002461FFE513600215130516E5167002054E
:10150B001530410E900225E475F001121475EF02AF
:10151B0014630224097403D2418003E4C241F5121F
:10152B0090022512148CE4F513F515F516E51360EE
:10153B00077F201214FE80F57514FFC23BC23AC21E
:10154B003CC23DC23FC240C2421214CAFF700D30B2
:10155B0041057F0012150FAF16AE1522B4255FC2E1
:10156B00D5C23E1214CAFF24D0B40A00501A75F02B
:10157B000A781330D50508B6FF0106C6A426F62057
:10158B00D5047002D23D80D924CFB41A00EF500499
:10159B00C2E5D23E021710D23B80C6D23A80C0D2EF
:1015AB003C80BCD2D580BAD23F80B47F201214FECF
:1015BB00203C077401B5130040F11214BBFF121449
:1015CB00FE021538D242D24080951214BBFB121486
:1015DB00BBFA1214BBF94A4B700679E17A177BFF01
:1015EB00203C2EE513602A7E008E8275830012123A
:1015FB000260060EEE651470F0C2D5EBC0E0EAC0D7
:10160B00E0E9C0E0EE121757D0E0F9D0E0FAD0E0F5
:10161B00FB12144AFF60AAEBC0E0EAC0E0E9C0E0AD
:10162B001214FED0E02401F9D0E03400FAD0E0FB34
:10163B00E5140460DCD514D980877BFF7A177953C6
:10164B00D23C809C791080027908C240C24280084B
:10165B00D2D5790A8004790AC2D5E514047002F553
:10166B0014E4FAFDFEFF1214BBFC7B08203B1312A3
:10167B0014BBFD7B10303A0A1214BBFE1214BBFFD5
:10168B007B20EC3382D592D55013C3E4303A069FBE
:10169B00FFE49EFEE4203B039DFDE49CFCE4CBF8C1
:1016AB00C23BEC700CCFCECDCCE824F8F870F380B5
:1016BB0017C3EF33FFEE33FEED33FDEC33FCEB33AF
:1016CB00FB994002FB0FD8E9EB303B05F8D0E0C4A7
:1016DB0048B23BC0E00AEC4D4E4F78207B0070C205
:1016EB00EAB5140040BCC0E0121759D0F0D0E0208E
:1016FB003B04C4C0E0C4B23BC0F01214E7D0F0D539
:10170B00F0EB02153812149515D553164F5815A634
:10171B004C15A24216534F165B44165B4915BB433F
:08172B001661551645461645EE
:101733004516454718015015AA2D15AE2E15D12B68
:1017430015B22315CF2017EA2A156A48000015C9D8
:101753003F3F3F00790AA2D5203D14303F09B9101D
:10176300020404B9080104A2D52040025001042058
:101773003C68923CB513005034C0E07F20303D19E3
:101783007F30A23C7240723F500F1217B0C23CC26E
:1017930040C23FC2427F30800F303F03E9C0E012B6
:1017A30014FE303F03D0E0F9D0E0B513CC303F173F
:1017B3007F30B9100C1214FE7F58303E077F7880BB
:1017C30003B908031214FE303C057F2D0214FE7F7B
:1017D300202042F87F2B2040F322923C80CF286EBA
:1017E300756C6C2900D23B1214BB303BF8C23B78BA
:1017F3001330D50108F602156A2D504349581214C7
:10180300BB2403B405004001E49017FC931214EFCA
:0D181300743A1214EFD23D75130402164F03
:10217C00021820E493A3F8E493A34003F68001F241
:10218C0008DFF48029E493A3F85407240CC8C33364
:10219C00C4540F4420C8834004F456800146F6DF33
:1021AC00E4800B0102040810204080901EF7E47EAE
:1021BC00019360BCA3FF543F30E509541FFEE49328
:1021CC00A360010ECF54C025E060A840B8E493A3EF
:1021DC00FAE493A3F8E493A3C8C582C8CAC583CA1A
:1021EC00F0A3C8C582C8CAC583CADFE9DEE780BED2
:011FE80000F8
:10144A00BB010689828A83E0225002E722BBFE02A0
:09145A00E32289828A83E49322D3
:10146300BB010689828A83F0225002F722BBFE0168
:02147300F32262
:10147500F8E0FBA3A3E0F925F0F0E5821582700200
:071485001583E0FA38F022A4
:09148C00EBF0A3EAF0A3E9F02261
:10149500D083D082F8E4937012740193700DA3A3E6
:1014A50093F8740193F5828883E4737402936860FA
:0614B500EFA3A3A380DFFA
:10240900EFB40A07740D122414740A309811A899AC
:10241900B8130CC2983098FDA899C298B811F63033
:0724290099FDC299F599220B
:00000001FF
